{
  "_format": "hh-sol-artifact-1",
  "contractName": "Disciplina",
  "sourceName": "contracts/Disciplina.sol",
  "abi": [
    {
      "anonymous": false,
      "inputs": [
        {
          "indexed": false,
          "internalType": "address",
          "name": "sender",
          "type": "address"
        },
        {
          "indexed": false,
          "internalType": "bytes32",
          "name": "prevHash",
          "type": "bytes32"
        },
        {
          "indexed": false,
          "internalType": "bytes32",
          "name": "merkleRoot",
          "type": "bytes32"
        },
        {
          "indexed": false,
          "internalType": "uint64",
          "name": "size",
          "type": "uint64"
        }
      ],
      "name": "NewHeader",
      "type": "event"
    },
    {
      "inputs": [
        {
          "internalType": "address",
          "name": "addr",
          "type": "address"
        }
      ],
      "name": "addressHashCBOR",
      "outputs": [
        {
          "internalType": "bytes32",
          "name": "",
          "type": "bytes32"
        }
      ],
      "stateMutability": "pure",
      "type": "function"
    },
    {
      "inputs": [
        {
          "internalType": "bytes32",
          "name": "prevHash",
          "type": "bytes32"
        },
        {
          "internalType": "bytes32",
          "name": "merkleRoot",
          "type": "bytes32"
        },
        {
          "internalType": "uint64",
          "name": "size",
          "type": "uint64"
        }
      ],
      "name": "constructPrivateHeader",
      "outputs": [
        {
          "internalType": "bytes",
          "name": "",
          "type": "bytes"
        }
      ],
      "stateMutability": "pure",
      "type": "function"
    },
    {
      "inputs": [
        {
          "internalType": "address",
          "name": "",
          "type": "address"
        }
      ],
      "name": "merkleRootCur",
      "outputs": [
        {
          "internalType": "bytes32",
          "name": "",
          "type": "bytes32"
        }
      ],
      "stateMutability": "view",
      "type": "function"
    },
    {
      "inputs": [
        {
          "internalType": "address",
          "name": "",
          "type": "address"
        }
      ],
      "name": "prevHashCur",
      "outputs": [
        {
          "internalType": "bytes32",
          "name": "",
          "type": "bytes32"
        }
      ],
      "stateMutability": "view",
      "type": "function"
    },
    {
      "inputs": [
        {
          "internalType": "bytes32",
          "name": "prevHash",
          "type": "bytes32"
        },
        {
          "internalType": "bytes32",
          "name": "merkleRoot",
          "type": "bytes32"
        },
        {
          "internalType": "uint64",
          "name": "size",
          "type": "uint64"
        }
      ],
      "name": "privateHeaderHash",
      "outputs": [
        {
          "internalType": "bytes32",
          "name": "",
          "type": "bytes32"
        }
      ],
      "stateMutability": "pure",
      "type": "function"
    },
    {
      "inputs": [
        {
          "internalType": "address",
          "name": "",
          "type": "address"
        }
      ],
      "name": "sizes",
      "outputs": [
        {
          "internalType": "uint64",
          "name": "",
          "type": "uint64"
        }
      ],
      "stateMutability": "view",
      "type": "function"
    },
    {
      "inputs": [
        {
          "internalType": "bytes32",
          "name": "prevHash",
          "type": "bytes32"
        },
        {
          "internalType": "bytes32",
          "name": "merkleRoot",
          "type": "bytes32"
        },
        {
          "internalType": "uint64",
          "name": "size",
          "type": "uint64"
        }
      ],
      "name": "submitHeader",
      "outputs": [],
      "stateMutability": "nonpayable",
      "type": "function"
    }
  ],
  "bytecode": "0x608060405234801561001057600080fd5b50611358806100206000396000f3fe608060405234801561001057600080fd5b506004361061007d5760003560e01c80636d6d48901161005b5780636d6d489014610112578063aa56af2114610142578063ca7060bc14610172578063f135a4701461018e5761007d565b806326cd259e146100825780634c7306e9146100b25780634c864111146100e2575b600080fd5b61009c60048036038101906100979190610bf7565b6101be565b6040516100a99190610c3d565b60405180910390f35b6100cc60048036038101906100c79190610bf7565b610217565b6040516100d99190610c3d565b60405180910390f35b6100fc60048036038101906100f79190610bf7565b61022f565b6040516101099190610c3d565b60405180910390f35b61012c60048036038101906101279190610cc4565b610247565b6040516101399190610da7565b60405180910390f35b61015c60048036038101906101579190610bf7565b61031e565b6040516101699190610dd8565b60405180910390f35b61018c60048036038101906101879190610cc4565b610345565b005b6101a860048036038101906101a39190610cc4565b610628565b6040516101b59190610c3d565b60405180910390f35b6000806101cb6020610645565b90506101ff836040516020016101e19190610e3b565b6040516020818303038152906040528261066c90919063ffffffff16565b61020881610695565b80519060200120915050919050565b60016020528060005260406000206000915090505481565b60006020528060005260406000206000915090505481565b606060006102556080610645565b905061026b6003826106ee90919063ffffffff16565b61027f6000826106fe90919063ffffffff16565b6102b1856040516020016102939190610e77565b6040516020818303038152906040528261066c90919063ffffffff16565b6102c6610413826106fe90919063ffffffff16565b6102d983826106fe90919063ffffffff16565b61030b846040516020016102ed9190610e77565b6040516020818303038152906040528261066c90919063ffffffff16565b61031481610695565b9150509392505050565b60026020528060005260406000206000915054906101000a900467ffffffffffffffff1681565b6000801b6000803373ffffffffffffffffffffffffffffffffffffffff1673ffffffffffffffffffffffffffffffffffffffff16815260200190815260200160002054036103dc57610396336101be565b83146103d7576040517f08c379a00000000000000000000000000000000000000000000000000000000081526004016103ce90610f15565b60405180910390fd5b6104f9565b6104b76000803373ffffffffffffffffffffffffffffffffffffffff1673ffffffffffffffffffffffffffffffffffffffff16815260200190815260200160002054600160003373ffffffffffffffffffffffffffffffffffffffff1673ffffffffffffffffffffffffffffffffffffffff16815260200190815260200160002054600260003373ffffffffffffffffffffffffffffffffffffffff1673ffffffffffffffffffffffffffffffffffffffff16815260200190815260200160002060009054906101000a900467ffffffffffffffff16610628565b83146104f8576040517f08c379a00000000000000000000000000000000000000000000000000000000081526004016104ef90610f81565b60405180910390fd5b5b826000803373ffffffffffffffffffffffffffffffffffffffff1673ffffffffffffffffffffffffffffffffffffffff1681526020019081526020016000208190555081600160003373ffffffffffffffffffffffffffffffffffffffff1673ffffffffffffffffffffffffffffffffffffffff1681526020019081526020016000208190555080600260003373ffffffffffffffffffffffffffffffffffffffff1673ffffffffffffffffffffffffffffffffffffffff16815260200190815260200160002060006101000a81548167ffffffffffffffff021916908367ffffffffffffffff1602179055507ffa7fa549ba557eabb6e88c44f6eb97c1b8d79a4c5d8f000035229c805c6709ce3384848460405161061b9493929190610fb0565b60405180910390a1505050565b6000610635848484610247565b8051906020012090509392505050565b61064d610b5a565b61065b81600001518361070e565b506000816020018181525050919050565b6106798260028351610787565b61069081836000015161093090919063ffffffff16565b505050565b606060008260200151146106de576040517f08c379a00000000000000000000000000000000000000000000000000000000081526004016106d590611041565b60405180910390fd5b8160000151600001519050919050565b6106fa8260048361094c565b5050565b61070a82600083610787565b5050565b610716610b7a565b6000602083610725919061109a565b1461075157602082610737919061109a565b602061074391906110fa565b8261074e919061112e565b91505b81836020018181525050604051808452600081528281016020018181101561077857600080fd5b80604052505082905092915050565b60178167ffffffffffffffff16116107c2576107bc8160058460ff16901b60ff1617846000015161095c90919063ffffffff16565b5061092b565b60ff8167ffffffffffffffff1611610820576107f5601860058460ff16901b17846000015161095c90919063ffffffff16565b5061081a8167ffffffffffffffff16600185600001516109c69092919063ffffffff16565b5061092a565b61ffff8167ffffffffffffffff161161087f57610854601960058460ff16901b17846000015161095c90919063ffffffff16565b506108798167ffffffffffffffff16600285600001516109c69092919063ffffffff16565b50610929565b63ffffffff8167ffffffffffffffff16116108e0576108b5601a60058460ff16901b17846000015161095c90919063ffffffff16565b506108da8167ffffffffffffffff16600485600001516109c69092919063ffffffff16565b50610928565b610901601b60058460ff16901b17846000015161095c90919063ffffffff16565b506109268167ffffffffffffffff16600885600001516109c69092919063ffffffff16565b505b5b5b5b505050565b610938610b7a565b61094483838451610a53565b905092915050565b610957838383610787565b505050565b610964610b7a565b60008360000151519050600060018261097d919061112e565b9050846020015182106109a1576109a08560028361099b9190611162565b610b36565b5b845160208382010185815381518311156109b9578282525b5050849250505092915050565b6109ce610b7a565b60008460000151519050600081846109e6919061112e565b90508560200151811115610a0b57610a0a86600283610a059190611162565b610b36565b5b6000600185610100610a1d91906112d7565b610a2791906110fa565b905086518281018783198251161781528151841115610a44578382525b50508693505050509392505050565b610a5b610b7a565b8251821115610a6957600080fd5b6000846000015151905060008382610a81919061112e565b90508560200151811115610aa657610aa586600283610aa09190611162565b610b36565b5b60008087518051856020830101935080851115610ac1578482525b60208901925050505b60208610610b085780518252602082610ae3919061112e565b9150602081610af2919061112e565b9050602086610b0191906110fa565b9550610aca565b60006001876020036101000a0390508019825116818451168181178552505050879450505050509392505050565b600082600001519050610b49838361070e565b50610b548382610930565b50505050565b6040518060400160405280610b6d610b7a565b8152602001600081525090565b604051806040016040528060608152602001600081525090565b600080fd5b600073ffffffffffffffffffffffffffffffffffffffff82169050919050565b6000610bc482610b99565b9050919050565b610bd481610bb9565b8114610bdf57600080fd5b50565b600081359050610bf181610bcb565b92915050565b600060208284031215610c0d57610c0c610b94565b5b6000610c1b84828501610be2565b91505092915050565b6000819050919050565b610c3781610c24565b82525050565b6000602082019050610c526000830184610c2e565b92915050565b610c6181610c24565b8114610c6c57600080fd5b50565b600081359050610c7e81610c58565b92915050565b600067ffffffffffffffff82169050919050565b610ca181610c84565b8114610cac57600080fd5b50565b600081359050610cbe81610c98565b92915050565b600080600060608486031215610cdd57610cdc610b94565b5b6000610ceb86828701610c6f565b9350506020610cfc86828701610c6f565b9250506040610d0d86828701610caf565b9150509250925092565b600081519050919050565b600082825260208201905092915050565b60005b83811015610d51578082015181840152602081019050610d36565b60008484015250505050565b6000601f19601f8301169050919050565b6000610d7982610d17565b610d838185610d22565b9350610d93818560208601610d33565b610d9c81610d5d565b840191505092915050565b60006020820190508181036000830152610dc18184610d6e565b905092915050565b610dd281610c84565b82525050565b6000602082019050610ded6000830184610dc9565b92915050565b60008160601b9050919050565b6000610e0b82610df3565b9050919050565b6000610e1d82610e00565b9050919050565b610e35610e3082610bb9565b610e12565b82525050565b6000610e478284610e24565b60148201915081905092915050565b6000819050919050565b610e71610e6c82610c24565b610e56565b82525050565b6000610e838284610e60565b60208201915081905092915050565b600082825260208201905092915050565b7f466972737420686561646572202d2077726f6e672067656e657369732068617360008201527f6800000000000000000000000000000000000000000000000000000000000000602082015250565b6000610eff602183610e92565b9150610f0a82610ea3565b604082019050919050565b60006020820190508181036000830152610f2e81610ef2565b9050919050565b7f57726f6e67206861736800000000000000000000000000000000000000000000600082015250565b6000610f6b600a83610e92565b9150610f7682610f35565b602082019050919050565b60006020820190508181036000830152610f9a81610f5e565b9050919050565b610faa81610bb9565b82525050565b6000608082019050610fc56000830187610fa1565b610fd26020830186610c2e565b610fdf6040830185610c2e565b610fec6060830184610dc9565b95945050505050565b7f496e76616c69642043424f520000000000000000000000000000000000000000600082015250565b600061102b600c83610e92565b915061103682610ff5565b602082019050919050565b6000602082019050818103600083015261105a8161101e565b9050919050565b6000819050919050565b7f4e487b7100000000000000000000000000000000000000000000000000000000600052601260045260246000fd5b60006110a582611061565b91506110b083611061565b9250826110c0576110bf61106b565b5b828206905092915050565b7f4e487b7100000000000000000000000000000000000000000000000000000000600052601160045260246000fd5b600061110582611061565b915061111083611061565b9250828203905081811115611128576111276110cb565b5b92915050565b600061113982611061565b915061114483611061565b925082820190508082111561115c5761115b6110cb565b5b92915050565b600061116d82611061565b915061117883611061565b925082820261118681611061565b9150828204841483151761119d5761119c6110cb565b5b5092915050565b60008160011c9050919050565b6000808291508390505b60018511156111fb578086048111156111d7576111d66110cb565b5b60018516156111e65780820291505b80810290506111f4856111a4565b94506111bb565b94509492505050565b60008261121457600190506112d0565b8161122257600090506112d0565b8160018114611238576002811461124257611271565b60019150506112d0565b60ff841115611254576112536110cb565b5b8360020a91508482111561126b5761126a6110cb565b5b506112d0565b5060208310610133831016604e8410600b84101617156112a65782820a9050838111156112a1576112a06110cb565b5b6112d0565b6112b384848460016111b1565b925090508184048111156112ca576112c96110cb565b5b81810290505b9392505050565b60006112e282611061565b91506112ed83611061565b925061131a7fffffffffffffffffffffffffffffffffffffffffffffffffffffffffffffffff8484611204565b90509291505056fea2646970667358221220d337050ffdae9c28ea1f7df0f5a40f76516d5db8c6df8013429ed23a5048969e64736f6c63430008130033",
  "linkReferences": {},
  "deployedLinkReferences": {}
}